:100000000C9463000C948B000C948B000C948B006C
:100010000C948B000C948B000C948B000C948B0034
:100020000C948B000C948B000C948B000C9473112B
:100030000C948B000C948B000C948B000C948B0014
:100040000C94D1100C948B000C9441110C941B1146
:100050000C948B000C948B000C948B000C948B00F4
:100060000C942F120C948B0000000000230026003B
:10007000290000000000240027002A0000000000E2
:10008000250028002B0004040404040404040202D4
:100090000202020203030303030301020408102007
:1000A0004080010204081020010204081020000012
:1000B0000008000201000003040700000000000027
:1000C0000000B713F41611241FBECFEFD8E0DEBF37
:1000D000CDBF13E0A0E0B1E0EAE5F4E302C0059093
:1000E0000D92A03EB107D9F725E0A0EEB3E001C024
:1000F0001D92A63CB207E1F710E0C2E6D0E004C0D2
:100100002197FE010E94C417C136D107C9F70E948A
:1001100048140C94201A0C9400008F929F92AF9276
:10012000BF92FF920F931F93CF93DF93F090B2058E
:100130002BE02F1508F44CC02091B40508E512E01F
:10014000021B110927FD1395000F111F000F111F2E
:100150002091B305C8E8D0E0C21BD10927FDD39593
:10016000CC0FDD1FCC0FDD1F4E010D2E000CAA0899
:10017000BB089801012E000C440B550B28193909B6
:100180004A095B09DC010E94481724EB30E040E09B
:1001900050E00E941E17820E931EA41EB51E8C16E0
:1001A0009D062CF0E801801691060CF4E4012297DC
:1001B000CC0FDD1F2FB7F8948F2D90E0FC01EE0FD0
:1001C000FF1FE80FF91FEF57FA4FD283C1832FBFEC
:1001D000DF91CF911F910F91FF90BF90AF909F90B3
:1001E0008F900895833081F028F4813099F0823027
:1001F000A9F008958730A9F08830C9F08430B1F4AF
:10020000809180008F7D03C0809180008F778093E4
:100210008000089584B58F7784BD089584B58F7D5F
:10022000FBCF8091B0008F778093B00008958091CC
:10023000B0008F7DF9CF1F93CF93DF93282F30E04D
:10024000F901E255FF4F8491F901E656FF4FD49131
:10025000F901EA57FF4FC491CC23A9F0162F811161
:100260000E94F200EC2FF0E0EE0FFF1FE458FF4F6A
:10027000A591B4918FB7F894EC91111108C0D09565
:10028000DE23DC938FBFDF91CF911F910895DE2B8A
:10029000F8CFCF93DF9390E0FC01E656FF4F249117
:1002A0008A579F4FFC0184918823D1F090E0880FFA
:1002B000991FFC01EE58FF4FA591B491FC01E45841
:1002C000FF4FC591D49161110EC09FB7F8948C91E6
:1002D000E22FE0958E238C932881E223E8839FBF51
:1002E000DF91CF9108958FB7F894EC91E22BEC93C6
:1002F0008FBFF6CFCF93DF93EC0161E085E00E94E2
:100300004901209731F460E085E0DF91CF910C94B2
:100310001B01CF3FD10511F461E0F6CFE3EBF0E034
:10032000E491E33029F140F4E130B1F0E230D9F06A
:10033000C038D1058CF7E7CFE73021F1E83051F133
:10034000E430B1F780918000806280938000D09388
:100350008B00C0938A0004C084B5806884BDC7BD8B
:10036000DF91CF91089584B5806284BDC8BDF8CF78
:1003700080918000806880938000D0938900C09332
:100380008800EECF8091B00080688093B000C09369
:10039000B300E6CF8091B00080628093B000C0933C
:1003A000B400DECF3FB7F8948091D0049091D1048F
:1003B000A091D204B091D30426B5A89B05C02F3FCD
:1003C00019F00196A11DB11D3FBFBA2FA92F982F7B
:1003D0008827BC01CD01620F711D811D911D42E076
:1003E000660F771F881F991F4A95D1F708958F923E
:1003F0009F92AF92BF92CF92DF92EF92FF924B010A
:100400005C010E94D2016B017C010E94D2016C1937
:100410007D098E099F09683E734081059105A8F307
:1004200021E0821A9108A108B10888EEC80E83E085
:10043000D81EE11CF11C81149104A104B10429F718
:10044000FF90EF90DF90CF90BF90AF909F908F90F4
:100450000895089508950895AF92BF92CF92DF92C4
:10046000EF92FF920F931F93CF93DF936C017B0169
:100470008B01040F151FEB015E01AE18BF08C017FA
:10048000D10759F06991D601ED91FC910190F0816D
:10049000E02DC6010995892B79F7C501DF91CF9130
:1004A0001F910F91FF90EF90DF90CF90BF90AF9092
:1004B0000895FC01538D448D252F30E0842F90E06A
:1004C000821B930B541710F0CF960895019708954F
:1004D000FC01918D828D981761F0A28DAE0FBF2F18
:1004E000B11D5D968C91928D9F5F9F73928F90E06E
:1004F00008958FEF9FEF08952FB7F8948091D4045B
:100500009091D504A091D604B091D7042FBF8093C9
:10051000E0049093E104A093E204B093E30488ED37
:1005200094E00E94680297FF26C02FB7F89480914C
:10053000D4049091D504A091D604B091D7042FBFD4
:100540004091E0045091E1046091E2047091E30471
:10055000841B950BA60BB70B4091DC045091DD0476
:100560006091DE047091DF0484179507A607B70732
:10057000B0F28FEF9FEF0895FC01918D828D981757
:1005800031F0828DE80FF11D858D90E008958FEF99
:100590009FEF0895FC01918D228D892F90E0805C62
:1005A0009F4F821B91098F739927089588ED94E0DE
:1005B0000E94CA0221E0892B09F420E0822F0895CD
:1005C00080E090E0892B29F00E94D60281110C94E2
:1005D00000000895FC01A48DA80FB92FB11DA35AE6
:1005E000BF4F2C91848D90E001968F739927848F53
:1005F000A689B7892C93A089B1898C918370806476
:100600008C93938D848D981306C00288F389E02D16
:1006100080818F7D80830895EF92FF920F931F93C7
:10062000CF93DF93EC0181E0888F9B8D8C8D9813A5
:100630001AC0E889F989808185FF15C09FB7F894B1
:10064000EE89FF896083E889F989808183708064FD
:1006500080839FBF81E090E0DF91CF911F910F9148
:10066000FF90EF900895F62E0B8D10E00F5F1F4F57
:100670000F731127E02E8C8D8E110CC00FB607FC66
:10068000FACFE889F989808185FFF5CFCE010E94F4
:10069000EA02F1CFEB8DEC0FFD2FF11DE35AFF4F76
:1006A000F0829FB7F8940B8FEA89FB898081806282
:1006B000CFCFCF93DF93EC01888D8823B9F0AA893F
:1006C000BB89E889F9898C9185FD03C0808186FD0D
:1006D0000DC00FB607FCF7CF8C9185FFF2CF80815C
:1006E00085FFEDCFCE010E94EA02E9CFDF91CF91E5
:1006F000089520912F04260F3327331F213231050F
:10070000ECF420917804FC0190E080E0243069F062
:1007100082E00895A0912F042191AC01415F5B4FCD
:10072000A40FB52FB11D2C930196861798F38091D5
:100730002F04680F60932F0480E0089581E00895EE
:100740001092780481E0809377041092520461E063
:1007500082E10E941B0161E083E10E941B01E9EB41
:10076000F0E080818E7F808380818D7F808388E42C
:100770008093B80085E48093BC000895CF93DF9305
:1007800091E090930E048823B9F0C091B800D09105
:10079000BA008091BC008A7B8093BC0060E082E15B
:1007A0000E941B0160E083E10E941B010E94A003E4
:1007B000D093BA00C093B800DF91CF910895089507
:1007C000E091A8048091A704E81730F4F0E0E2512A
:1007D000FC4F808190E008958FEF9FEF08959091F6
:1007E000A8048091A7042FEF3FEF981748F4E92F52
:1007F000F0E0E251FC4F208130E09F5F9093A8042D
:10080000C90108958091A7049091A804891B990BB0
:100810000895CF92DF92EF92FF920F931F93CF93A1
:10082000DF937C01CB018A0120917E04222389F091
:10083000EB016B01C40ED51ECC15DD0569F0699185
:10084000D701ED91FC910190F081E02DC701099550
:10085000F3CF642F0E947903C801DF91CF911F91DC
:100860000F91FF90EF90DF90CF900895CF93DF939B
:100870001F92CDB7DEB7698320917E042223F9F061
:100880002091A504203258F021E030E0FC013383B0
:10089000228390E080E00F90DF91CF9108958091C6
:1008A000A604E82FF0E0E158FB4F998190838F5F19
:1008B0008093A6048093A50481E090E0ECCF61E0F2
:1008C000CE0101960E947903F7CFCF92DF92EF928B
:1008D000FF920F931F93CF93DF93FC01C48121E01C
:1008E00020937E04C0939F041092A6041092A50446
:1008F0008485682B85E795E00E943604D091A50495
:10090000D13208F092C00E94D2016B017C0180912B
:100910007804811165C082E08093780481E080933F
:1009200077048FEF8093760410927504D09374044B
:10093000AFE7B4E0E4E5F4E080E0D81385C01092BE
:10094000530480915304CC0FC82BC093530480915F
:100950005204813009F07CC0109252040E94D201EE
:100960006B017C01809153048093BB0080917A04D9
:1009700090917B04A0917C04B0917D04892B8A2BFB
:100980008B2B99F00E94D20100917A0410917B0484
:1009900020917C0430917D046C197D098E099F099A
:1009A0000617170728073907E0F18091BC0083FD7F
:1009B000D9CF85EC8093BC000E94D2016B017C01F1
:1009C00080917804823009F445C0809176048F3F8D
:1009D00061F180917604803241F18091760425C0E6
:1009E00080917A0490917B04A0917C04B0917D0465
:1009F000892B8A2B8B2B09F48ACF0E94D20100917C
:100A00007A0410917B0420917C0430917D046C1950
:100A10007D098E099F09061717072807390708F06F
:100A200076CF809179040E94BE031092A6041092A2
:100A3000A50410927E04DF91CF911F910F91FF903A
:100A4000EF90DF90CF9008959D9191938F5F75CF38
:100A500085EEB0CF80917A0490917B04A0917C04C4
:100A6000B0917D04892B8A2B8B2B09F4A9CF0E948E
:100A7000D20100917A0410917B0420917C04309182
:100A80007D046C197D098E099F0906171707280731
:100A9000390708F095CFC5CF90E080E0089560E079
:100AA00086E00E941B0160E087E00E941B0160E07D
:100AB00088E00E941B0160E08AE00E941B0160E068
:100AC0008BE00C941B0161E086E00E941B0161E059
:100AD00087E00E941B0161E088E00E941B0161E049
:100AE0008AE00E941B0161E08BE00C941B010F93D4
:100AF0001F93CF938C01C62F0E9465046C2F6460F6
:100B0000C8010E9465046C2F6B7FC8010E946504B8
:100B100083EC90E00197F1F7CF911F910F91089529
:100B20000F931F93CF93DF938C01D62FC42F607F39
:100B3000642B0E94770580E1D89FB00111246C2BB3
:100B4000C801DF91CF911F910F910C947705CF933E
:100B5000DF93CDB7DEB728970FB6F894DEBF0FBE90
:100B6000CDBF98E0E6E0F1E0DE01119601900D9234
:100B70009A95E1F79091BD05981708F48FEF90E0F2
:100B8000880F991F21E030E02C0F3D1F820F931F2B
:100B9000FC016081606840E085EB95E028960FB627
:100BA000F894DEBF0FBECDBFDF91CF910C949005BE
:100BB00040E061E085EB95E00E9490058BE39FE1CA
:100BC0000197F1F78091BE05882319F080E00C941D
:100BD000A705089541E00E94900581E090E0089506
:100BE0000F931F93CF93DF938C01D0E0C0E0D80127
:100BF00014968D919C911597C817D90790F4ED9193
:100C0000FC91309759F41092ED03EDEEF3E0608122
:100C100085EB95E00E94EA052196E9CFEC0FFD1FD8
:100C2000F6CFDF91CF911F910F910895CF93DF936E
:100C3000FC0101900020E9F73197AF01481B590BE7
:100C4000BC0188ED94E00E942C02EC0142E050E0EF
:100C50006EE371E088ED94E00E942C028C0F9D1FE2
:100C6000DF91CF910895AF92BF92CF92DF92EF9232
:100C7000FF920F931F93CF93DF93DC01CD90DC9015
:100C80001197C114D10439F01496CD91DC918C01E7
:100C90007601209761F4DF91CF911F910F91FF9022
:100CA000EF90DF90CF90BF90AF90089575015701FE
:100CB000BFEFAB1ABB0AF7018081082E000C990B1D
:100CC0000E94FC16892B91F72197CC0DDD1D8881A0
:100CD000082E000C990B0E94FC16892B29F0CE15CA
:100CE000DF0510F02197F3CFAE014F5F5F4F4E1934
:100CF0005F09D80115965C934E931497CE14DF04C8
:100D000020F4B701C6010E94C919D801ED91FC91E8
:100D1000119714968D919C91E80FF91F1082BBCF0B
:100D2000CF93DF93FC01C081D181209761F089913D
:100D3000882349F0082E000C990B0E94C119FE016E
:100D400031978083F4CFDF91CF910895CF93DF93D4
:100D5000DC0114962D913C911597232B79F0FB0122
:100D6000CD91DC9160817181CE010E94061A0097BD
:100D700029F08C1B9D0BDF91CF9108958FEF9FEF92
:100D8000FACFFB0144815581FC0124813581241770
:100D9000350778F080819181009759F0FB016081DF
:100DA00071816115710529F00E94ED1921E0892BEF
:100DB00009F020E0822F0895FC0124813581232B46
:100DC00039F421E0FB018081882349F020E007C04D
:100DD000808191810E94DD1921E0892BB9F7822F52
:100DE0000895FC0124813581FB014481558124173C
:100DF0003507E1F4FC0180819181FB016081718103
:100E00000097D1F061157105A1F4232BC1F0FC010D
:100E1000808190E008C0232B91F0FB01808190E05D
:100E200091958195910921E0892B09F020E0822F8D
:100E300008950E94DD19F7CF6115710561F721E072
:100E4000F6CF0F931F93CF93DF93EC0188819981A5
:100E5000009759F02A813B812617370730F081E04F
:100E6000DF91CF911F910F9108958B016F5F7F4F9D
:100E70000E94EF18009759F0998388831B830A8397
:100E80002C813D81232B59F7FC011082E8CF80E0B3
:100E9000E7CFEF92FF920F931F93CF93DF936115EC
:100EA000710541F480E0DF91CF911F910F91FF9088
:100EB000EF90089541155105B1F07B01EC010C81D3
:100EC0001D81040F151FB8010E942107882351F3CB
:100ED000288139818C819D81B701820F931F0E94E7
:100EE000E6191D830C8381E0DECFCF93DF93EC0105
:100EF00088819981009711F00E94661819821882E2
:100F00001D821C821B821A82DF91CF910895EF927D
:100F1000FF920F931F93CF93DF93EC017B018A0124
:100F2000BA010E94210781110BC0CE010E947507F2
:100F3000CE01DF91CF911F910F91FF90EF90089517
:100F40001D830C83B701888199810E94E619F0CF37
:100F5000FB0101900020E9F73197AF01461B570BC9
:100F60000C948707CF93DF93EC01FB01861797075B
:100F700049F0608171816115710541F044815581AD
:100F80000E948707CE01DF91CF9108950E947507D7
:100F9000F9CFFC0111821082138212821582148211
:100FA000FB0101900020E9F73197AF01461B570B79
:100FB0000C948707AF92BF92CF92DF92EF92FF928D
:100FC0000F931F93CF93DF936C015B017A0189012B
:100FD0002417350720F48F2D7901042F182F60E492
:100FE00071E0C6010E94C907D5011496CD91DC912C
:100FF000EC16FD06E0F40C171D0708F4E801D50116
:10100000ED91FC911197EC0FFD1F108110826D91F5
:101010007C916E0D7F1DC60161157105A1F00E94C6
:10102000A807F50180819181C80FD91F1883C601D7
:10103000DF91CF911F910F91FF90EF90DF90CF90B4
:10104000BF90AF9008950E947507EBCFFC0180819F
:101050009181009711F00C9466180895EF92FF9219
:101060000F931F93CF93DF9300D000D000D0CDB764
:10107000DEB77C018B010E94D80580E00E94A705A5
:101080001A8219821C821B821E821D82B701CE0128
:1010900001960E94B207CE0101960E94F005CE0192
:1010A00001960E94260881E00E94A7051A821982F3
:1010B0001C821B821E821D82B801CE0101960E94F5
:1010C000B207CE0101960E94F005CE0101960E9462
:1010D000260826960FB6F894DEBF0FBECDBFDF916F
:1010E000CF911F910F91FF90EF90089585ED809320
:1010F000BC0080917A0490917B04A0917C04B09113
:101100007D040796A11DB11D23E0B695A79597957F
:1011100087952A95D1F72091BC0024FD03C0109239
:101120007804089540917A0450917B0460917C0486
:1011300070917D04452B462B472B69F30097A10541
:10114000B10541F02AE22A95F1F700C00197A10903
:10115000B109E1CF809179040C94BE031F93CF9322
:10116000DF93EC01162F0E940817181739F0612F32
:10117000CE01DF91CF911F910C941017DF91CF9189
:101180001F9108950C9408176F927F928F929F92EF
:10119000AF92BF92CF92DF92EF92FF920F931F9385
:1011A000CF93DF93CDB7DEB7A4970FB6F894DEBF29
:1011B0000FBECDBF88ED94E00E94CA021816190632
:1011C0000CF083C660E471E0CE0143960E94C9072B
:1011D0000E947C0297FD0FC08A30910561F08983DF
:1011E0001A8241E050E0BE016F5F7F4FCE0143960F
:1011F0000E944907EDCFCE0143960E9433068F89A6
:10120000988D892B39F161E471E0CE0101960E943D
:10121000C907BE016F5F7F4FCE0143960E94C10692
:10122000182FCE0101960E942608111113C064E404
:1012300071E0CE0143960E94DC06882321F181E013
:101240008093EC031092EB0360E471E086EA95E092
:101250000E94A807CE0143960E942608A4960FB6C6
:10126000F894DEBF0FBECDBFDF91CF911F910F91DC
:10127000FF90EF90DF90CF90BF90AF909F908F90B6
:101280007F906F9008951091EC03112309F4CCC462
:101290006DE471E0CE0143960E94DC06882309F4D8
:1012A0006BC01092EC038091EB03811139C066E5AD
:1012B00071E0CE0107960E94C9076FE571E0CE018B
:1012C00001960E94C907BE01695F7F4FCE0101965A
:1012D0000E942E08CE0101960E942608CE01079694
:1012E0000E94260803E010E061E08DE00E941B01EF
:1012F00068EC70E080E090E00E94F70160E08DE033
:101300000E941B0168EC70E080E090E00E94F70111
:101310000150110949F78DE691E00E9416069ACF17
:1013200066E971E0CE0107960E94C90763EA71E0A1
:10133000CE0101960E94C907BE01695F7F4FCE01B1
:1013400001960E942E08CE0101960E942608CE0129
:1013500007960E94260861E08EE00E941B0160ED66
:1013600077E080E090E00E94F70160E08EE00E946C
:101370001B018CEA91E0D1CFCE0143960E949006EA
:101380006DED71E0CE010D960E94C907BE01635F4D
:101390007F4FCE0143960E94C106012F811128C0C4
:1013A00069EE71E0CE0107960E94C907BE01695F30
:1013B0007F4FCE0143960E94C106811115C067EF91
:1013C00071E0CE0101960E94C907BE016F5F7F4F99
:1013D000CE0143960E94C10601E0811101C000E0E8
:1013E000CE0101960E942608CE0107960E9426088B
:1013F000CE010D960E942608002341F0BE016D5ECD
:101400007F4F86EA95E00E94B20724CF62E072E047
:10141000CE0101960E94C907BE016F5F7F4FCE01CA
:1014200043960E94C106F82ECE0101960E9426081E
:10143000FF2009F438C1CF88D88CC114D10409F435
:10144000A9C2EB88FC8862E270E0C7010E94D21951
:101450008C010E191F09892B11F40FEF1FEFF701F3
:10146000EC0DFD1DB0801082EB88FC8862E270E01C
:10147000C7010E94FB19CE0CDF1CF601B082009759
:1014800009F488C20F3F100709F484C22B893C89F4
:10149000AC01421B530B9A012F3F320709F47AC269
:1014A000021713070CF076C2A8014F5F5F4FBE0111
:1014B0006D5E7F4FCE0107960E94DA07CE01079638
:1014C0000E9433068B859C850B9750F12AE030E013
:1014D00050E040E0BE01695F7F4FCE0101960E945F
:1014E000DA078F819885009709F46FC069817A8146
:1014F0006115710509F467C049855A852D813E81C2
:101500004217530708F45FC00E94E6198D819E813F
:101510009C878B871E821D82CE0101960E94260821
:1015200064EC74E0CE0101960E94C907BE01695FB8
:101530007F4FCE0101960E94F106182FCE01019631
:101540000E9426086FE072E0111116C069EB74E08A
:10155000CE0101960E94C907BE01695F7F4FCE018F
:1015600001960E94F106182FCE0101960E942608CE
:101570001123E1F16DE172E0CE0101960E94C907ED
:10158000BE01695F7F4FCE0101960E944E13BC01E0
:1015900086EA95E00E94B207CE0101960E942608D5
:1015A00061E08DE00E941B0164EF71E080E090E05B
:1015B0000E94F70160E08DE00E941B01CE010796BA
:1015C0000E94260847CE0E94661889819A819887D2
:1015D0008F838B819C819A8789878D819E819C874F
:1015E0008B871A8219821C821B8294CF8091A90456
:1015F0009091AA04009711F56BE272E0CE0101967A
:101600000E94C907BE01695F7F4FCE0101960E940B
:101610004E13BC0186EA95E00E94B207CE01019606
:101620000E94260881E090E09093AA048093A90488
:1016300061E085E090E00E94AE08C0CF68E372E010
:101640000197E1F4CE0101960E94C907BE01695FCE
:101650007F4FCE0101960E944E13BC0186EA95E0B1
:101660000E94B207CE0101960E94260882E090E017
:101670009093AA048093A90462E0DBCFCE01019687
:101680000E94C907BE01695F7F4FCE0101960E948B
:101690004E13BC0186EA95E00E94B207CE01019686
:1016A0000E9426088BCF65E472E0CE0101960E946D
:1016B000C907BE016F5F7F4FCE0143960E94C106EE
:1016C000F82ECE0101960E942608FF2009F478C06A
:1016D0006AE671E0CE0101960E94C907BE016F5F04
:1016E0007F4FCE0143960E94A606F12CE12C019675
:1016F00019F0EE24EA94F12CCE0101960E942608FE
:101700006AE671E0CE0107960E94C907BE01695FD3
:101710007F4FCE0143960E94A6060196A9F461E58B
:1017200072E0CE0101960E94C907BE016F5F7F4F34
:10173000CE0143960E94A60601E0019609F000E062
:10174000CE0101960E942608CE0107960E94260827
:10175000002319F081E08093EB0365E572E0CE0190
:1017600001960E94C907BE016F5F7F4F86EA95E030
:101770000E94C106182FCE0101960E94260811234F
:1017800029F0F092B804E092B70464CD6DE572E000
:10179000CE0101960E94C907BE016F5F7F4F86EAA6
:1017A00095E00E94C106182FCE0101960E942608DE
:1017B000112309F44FCDF092B104E092B0044ACD68
:1017C00065E672E0CE0107960E94C907BE01695F17
:1017D0007F4FCE0143960E94C106811115C06CE671
:1017E00072E0CE0101960E94C907BE016F5F7F4F74
:1017F000CE0143960E94C10611E0811101C010E0A4
:10180000CE0101960E942608CE0107960E94260866
:10181000112309F41FCD65E572E0CE0107960E9401
:10182000C907BE01695F7F4F86EA95E00E94C10645
:10183000811115C06DE572E0CE0101960E94C907C5
:10184000BE016F5F7F4F86EA95E00E94C10611E0FE
:10185000811101C010E0CE0101960E942608CE0140
:1018600007960E942608112309F4F4CC65E572E07E
:10187000CE0101960E94C907BE016F5F7F4F86EAC5
:1018800095E00E94C106882ECE0101960E9426088E
:1018900062E772E0CE0101960E94C907BE016F5F48
:1018A0007F4FCE0143960E94A6063C01CE010196D1
:1018B0000E94260868E772E0CE0101960E94C907DF
:1018C000BE016F5F7F4FCE0143960E94A6066C015A
:1018D000CE0101960E94260861E872E0CE010196D1
:1018E0000E94C907BE016F5F7F4FCE0143960E94E1
:1018F000A6065C01CE0101960E94260869E872E006
:10190000CE0101960E94C907BE016F5F7F4FCE01D5
:1019100043960E94A6068C01CE0101960E942608DD
:101920000F3F100791F460E972E0CE0101960E942A
:10193000C907BE016F5F7F4FCE0143960E94A60686
:101940008C01CE0101960E94260866E972E0CE0164
:1019500001960E94C907BE016F5F7F4FCE0143967B
:101960000E94A6067C01CE0101960E9426083FEF48
:101970006316730679F04FEFC416D40659F05FEF83
:10198000A516B50639F00F3F100721F0EFEFEE1660
:10199000FE0621F481E08093EB035CCC2F89388D27
:1019A000A301BE016D5E7F4FCE0107960E94DA074C
:1019B0006AE671E0CE0101960E94C907BE016F5F21
:1019C0007F4FCE0107960E94A60699249394019614
:1019D00009F4912CCE0101960E942608CE010796AB
:1019E0000E9426082F89388DA601BE016D5E7F4FAB
:1019F000CE0107960E94DA076AE671E0CE010196F1
:101A00000E94C907BE016F5F7F4FCE0107960E94FB
:101A1000A606CC24C394019609F4C12CCE010196EC
:101A20000E942608CE0107960E9426082F89388D2D
:101A3000A501BE016D5E7F4FCE0107960E94DA07B9
:101A40006AE671E0CE0101960E94C907BE016F5F90
:101A50007F4FCE0107960E94A606DD24D3940196FF
:101A600009F4D12CCE0101960E942608CE010796DA
:101A70000E9426082F89388DA801BE016D5E7F4F18
:101A8000CE0107960E94DA076AE671E0CE01019660
:101A90000E94C907BE016F5F7F4FCE0107960E946B
:101AA000A60601E0019609F400E0CE0101960E942D
:101AB0002608CE0107960E9426082F89388DA70197
:101AC000BE016D5E7F4FCE0107960E94DA076AE67F
:101AD00071E0CE0101960E94C907BE016F5F7F4F82
:101AE000CE0107960E94A60611E0019609F410E0C7
:101AF000CE0101960E942608CE0107960E94260874
:101B0000E090AA05F090AB05E114F10471F0A0900B
:101B1000A605B090A7056AE370E0C5010E94D2193E
:101B2000AC014A195B09892B11F44FEF5FEF4F5F4E
:101B30005F4F970166EA75E0CE0107960E94DA07CB
:101B40008820D1F1E090B704F090B8048FEFE81648
:101B5000F10411F0F12CE12CF092B804E092B704FA
:101B60009092B204C092B304D092B4040093B5042E
:101B70001093B6041A8219821C821B821E821D8257
:101B8000BE01695F7F4FCE0101960E94B20722EB32
:101B900034E0A701BE016F5F7F4F81E090E00E94BB
:101BA0006113CE0101960E9426086F81788584EC2E
:101BB00094E00E94E61902CDE090B004F090B104E8
:101BC000EFEFEE16F10411F0F12CE12CF092B104DC
:101BD000E092B0049092AB04C092AC04D092AD04F9
:101BE0000093AE041093AF041A8219821C821B82E8
:101BF0001E821D82BE01695F7F4FCE0101960E9449
:101C0000B2072BEA34E0A701BE016F5F7F4F82E08D
:101C100090E00E946113CE0101960E9426086F8118
:101C2000788589EB94E0C5CF60E471E0CE010D9634
:101C30000E94C90710E000E08F89988D08171907E6
:101C400010F58B899C89F12C009721F0800F911F52
:101C5000FC01F0808F2D0F2C000C990B0E94AC1909
:101C6000892B19F4FFE5FF120BC0F9821A8241E0BB
:101C700050E0BE016F5F7F4FCE010D960E94490775
:101C80000F5F1F4FD9CFCE010D960E94900664ECD6
:101C900074E0CE0149960E94C907CE0149960E9480
:101CA000900669EB74E0CE014F960E94C907CE0101
:101CB0004F960E9490066DED71E0CE010D960E9448
:101CC000DC06882339F16DED71E08CEA95E00E9425
:101CD000A80762EA72E0CE0107960E94C90763EB8B
:101CE00072E0CE0101960E94C907BE01695F7F4F75
:101CF000CE0101960E942E08CE0101960E94260870
:101D0000CE0107960E94260861E090E080E00E94E4
:101D1000AE08CBC069EE71E0CE010D960E94DC06E4
:101D2000882329F169EE71E08CEA95E00E94A8070A
:101D30000E944F0560EC72E0CE0107960E94C90731
:101D40006FEC72E0CE0101960E94C907BE01695F87
:101D50007F4FCE0101960E942E08CE0101960E946F
:101D60002608CE0107960E94260862E0CECF67EFD4
:101D700071E0CE010D960E94DC06882329F167EF01
:101D800071E08CEA95E00E94A8070E944F0560EC84
:101D900072E0CE0107960E94C9076EED72E0CE0197
:101DA00001960E94C907BE01695F7F4FCE0101966F
:101DB0000E942E08CE0101960E942608CE010796A9
:101DC0000E94260863E0A1CF6AEE72E0CE010D9674
:101DD0000E94DC06882329F16AEE72E08CEA95E025
:101DE0000E94A8070E94630568EF72E0CE01079683
:101DF0000E94C90767E073E0CE0101960E94C907FF
:101E0000BE01695F7F4FCE0101960E942E08CE0170
:101E100001960E942608CE0107960E94260864E0DB
:101E200074CF60E173E0CE010D960E94DC0688233A
:101E300029F160E173E08CEA95E00E94A8070E9416
:101E40004F056CE173E0CE0107960E94C9076CE272
:101E500073E0CE0101960E94C907BE01695F7F4F02
:101E6000CE0101960E942E08CE0101960E942608FE
:101E7000CE0107960E94260865E047CFBE01675E47
:101E80007F4FCE010D960E94F106882329F08D8D9B
:101E90009E8D892B09F068C0BE01615E7F4FCE0127
:101EA0000D960E94F106811182C0CE014F960E94CC
:101EB0002608CE0149960E942608CE010D960E9462
:101EC0002608CE0143960E9426086DED71E08CEA4B
:101ED00095E00E94DC06882309F491C08FEF90E022
:101EE0000E947A012FB7F8948091D4049091D50480
:101EF000A091D604B091D7042FBF4091E703509131
:101F0000E8036091E9037091EA038C019D01041BD1
:101F1000150B260B370BB901A801443F5140610551
:101F2000710508F478C08093E7039093E803A093C9
:101F3000E903B093EA030091E00311E01027109346
:101F4000E003612F86E00E941B01612F88E00E9460
:101F50001B01602F87E00E941B01602F8AE00E9416
:101F60001B01612F8BE0D2C065E572E08CEA95E041
:101F70000E94A80764EC74E0CE0107960E94C9078E
:101F800066E373E0CE0101960E94C907BE01695F56
:101F90007F4FCE0101960E942E08CE0101960E942D
:101FA0002608CE0107960E94260866E0AECE8BA1D9
:101FB0009CA1892B09F479CF6DE572E08CEA95E05C
:101FC0000E94A80769EB74E0CE0107960E94C9073A
:101FD00066E373E0CE0101960E94C907BE01695F06
:101FE0007F4FCE0101960E942E08CE0101960E94DD
:101FF0002608CE0107960E94260867E086CE6AEE84
:1020000072E08CEA95E00E94DC06882359F18FEF9C
:1020100090E00E947A01E2EBF0E08491EEE9F0E0DA
:102020000491EAE8F0E01491112379F081110E9403
:10203000F200E12FF0E0EE0FFF1FE859FF4FA591EE
:10204000B491EC91E02309F081C01092E603109264
:10205000E5038091E5039091E6039093E403809378
:10206000E303FCC869EE71E08CEA95E00E94DC06AF
:10207000811146C067EF71E08CEA95E00E94DC06B2
:1020800081113EC060E173E08CEA95E00E94DC06BD
:10209000811136C063E473E08CEA95E00E94DC06AF
:1020A00081112EC065E572E08CEA95E00E94DC06A5
:1020B00081112FC06DE572E08CEA95E00E94DC068C
:1020C000882309F4A8CF8091B0049091B1040E94B4
:1020D0007A016091AB0486E00E941B016091AC0420
:1020E00087E00E941B016091AD0488E00E941B0103
:1020F0006091AE048AE00E941B016091AF0432CF70
:1021000090E080E00E947A0160E085E00E941B017F
:1021100082CF8091B7049091B8040E947A016091B7
:10212000B20486E00E941B016091B30487E00E9424
:102130001B016091B40488E00E941B016091B5040A
:102140008AE00E941B016091B6040CCF01E010E010
:102150001093E6030093E5038091E3039091E40379
:10216000892B09F076CF8091E1039091E203892BCE
:1021700079F48AE590E00E948D001093E2030093C9
:10218000E1036CE271E080E090E00E94F70161CF32
:1021900090E080E00E948D001092E2031092E10333
:1021A000F0CF1F920F920FB60F9211242F933F93EF
:1021B0008F939F93AF93BF938091D4049091D50454
:1021C000A091D604B091D7043091CF0423E0230F1F
:1021D0002D3758F50196A11DB11D2093CF04809392
:1021E000D4049093D504A093D604B093D7048091DF
:1021F000D0049091D104A091D204B091D30401965F
:10220000A11DB11D8093D0049093D104A093D2045A
:10221000B093D304BF91AF919F918F913F912F9134
:102220000F900FBE0F901F90189526E8230F02966F
:10223000A11DB11DD2CF1F920F920FB60F92112484
:102240002F933F934F935F936F937F938F939F93BE
:10225000AF93BF93EF93FF9388ED94E00E94EA025F
:10226000FF91EF91BF91AF919F918F917F916F916E
:102270005F914F913F912F910F900FBE0F901F9044
:1022800018951F920F920FB60F9211242F938F93D0
:102290009F93EF93FF93E091E804F091E90480812C
:1022A000E091EE04F091EF0482FD1BC090818091DB
:1022B000F1048F5F8F732091F204821741F0E09157
:1022C000F104F0E0E852FB4F958F8093F104FF9109
:1022D000EF919F918F912F910F900FBE0F901F90B4
:1022E00018958081F4CF1F920F920FB60F92112490
:1022F0002F933F934F935F936F937F938F939F930E
:10230000AF93BF93CF93DF93EF93FF938091A0049C
:10231000C091A505D0E087FF24C0109285001092DF
:1023200084008091A0048F5F8093A0048091A0041A
:10233000082E000C990B8C179D0724F48091A004A3
:102340008C30C4F180918400909185000496803493
:102350009C4908F47AC0809184009091850004968D
:1023600076C08091A004082E000C990B8C179D0755
:10237000C4F6E091A0048E2FEE0F990BFC01EE0F36
:10238000FF1FE80FF91FEF57FA4F808186FFC9CF73
:10239000E091A0048E2FEE0F990BFC01EE0FFF1FB2
:1023A000E80FF91FEF57FA4F808160E08F730E94AA
:1023B0001B01B7CF2091840030918500E091A004EB
:1023C0008E2FEE0F990BFC01EE0FFF1FE80FF91F88
:1023D000EF57FA4F81819281820F931F909389006A
:1023E00080938800E091A0048E2FEE0F990BFC01E2
:1023F000EE0FFF1FE80FF91FEF57FA4F808186FF9E
:1024000011C0E091A0048E2FEE0F990BFC01EE0F8E
:10241000FF1FE80FF91FEF57FA4F808161E08F73BC
:102420000E941B01FF91EF91DF91CF91BF91AF917E
:102430009F918F917F916F915F914F913F912F91DC
:102440000F900FBE0F901F90189580E49CE9909319
:102450008900809388008FEF8093A004E3CF1F92C0
:102460000F920FB60F9211242F933F934F935F93C8
:102470006F937F938F939F93AF93BF93EF93FF934C
:102480008091B900887F803609F44AC0F0F588321F
:1024900009F4A7C018F5803109F49BC0B8F488236B
:1024A00009F4F9C0883009F494C0FF91EF91BF910D
:1024B000AF919F918F917F916F915F914F913F91DC
:1024C0002F910F900FBE0F901F901895883109F42F
:1024D00088C0803251F78093760414C0803409F4A8
:1024E0009DC040F48033B9F38833F9F680937604C5
:1024F00085ECB0C0803509F485C0883509F496C0F4
:10250000883499F60E947608D0CF883909F48CC0B7
:1025100038F5883729F050F4883611F0803729F6DD
:1025200083E0809378041092510457C0883809F4EE
:102530007BC0803919F0803809F0B7CF8091510401
:10254000803208F071C0E091510481E08E0F8093D9
:1025500051048091BB00F0E0EF5CFB4F80833DC0F5
:10256000803B39F0E0F4803A09F479C0883A09F008
:102570009CCF84E0809378041092300410922F0452
:10258000E091A304F091A404099580912F04811196
:102590000FC081E080932F0410920F0409C0803C8B
:1025A00009F4A6CF883C09F4A3CF883B09F07DCF7E
:1025B000E091300481E08E0F80933004F0E0E15F21
:1025C000FB4F80818093BB009091300480912F0459
:1025D00029C0809153048093BB0085EC8093BC009C
:1025E00064CF9091750480917404981758F5E09128
:1025F000750481E08E0F80937504F0E0EC5AFB4F78
:102600008081E9CFE091750481E08E0F809375049D
:102610008091BB00F0E0EC5AFB4F808390917504F1
:10262000809174049817C8F285E8D8CFE0917504BA
:1026300081E08E0F809375048091BB00F0E0EC5A2E
:10264000FB4F80838091770481115CCF81E0809380
:10265000520484EA8093BC001092780426CF85EC63
:102660008093BC001092780480915104803230F441
:10267000E0915104F0E0EF5CFB4F10826091510457
:1026800070E0E091A104F091A20481E394E0099547
:10269000109251040ACF1092760434CFCF93DF9377
:1026A000EC01FB0144815581608171810E944907E1
:1026B000811103C0CE010E947507CE01DF91CF9139
:1026C00008959F92AF92BF92CF92DF92EF92FF92C6
:1026D0000F931F93CF93DF935B01942EE9012AE0C0
:1026E000C22ED12C34E1E32EF12C019731F08EE192
:1026F000C82ED12C98E2E92EF12C10E000E0F50173
:10270000848195810817190780F580819181009750
:1027100061F1800F911FFC016081C601800F911F44
:102720000E94AE080F5F1F4F0A30110541F7692D57
:10273000C7010E94AE088E010B5F1F4FEC1AFD0A05
:102740006991C7018C0F9D1F0E94AE080C171D07D1
:10275000B9F7DF91CF911F910F91FF90EF90DF902C
:10276000CF90BF90AF909F90089560E0D6CF109229
:10277000DB041092DA0488EE93E0A0E0B0E08093EE
:10278000DC049093DD04A093DE04B093DF0422E127
:1027900031E03093D9042093D80425EC30E0309315
:1027A000E5042093E40424EC30E03093E704209324
:1027B000E60420EC30E03093E9042093E80421ECB7
:1027C00030E03093EB042093EA0422EC30E03093C5
:1027D000ED042093EC0426EC30E03093EF042093DA
:1027E000EE041092F1041092F2041092F30410928D
:1027F000F4041092780510927705809379059093F0
:102800007A05A0937B05B0937C0584E291E09093D8
:102810007605809375051092B8051092B70586E38A
:1028200091E09093B6058093B5051092BE0580E2C5
:102830008093B90580E18093BF0582E08093C00555
:102840001092C1058091A5058C30F0F491E0980FAD
:102850009093A5058093B20590E0FC01EE0FFF1F59
:10286000E80FF91FEF57FA4F88EB9BE092838183C3
:1028700063E473E08CEA95E00E94C90760E471E0CC
:1028800086EA95E00C94C9078FEF8093B205F0CFEC
:10289000CF93DF93CDB7DEB72C970FB6F894DEBF9A
:1028A0000FBECDBF789484B5826084BD84B581604D
:1028B00084BD85B5826085BD85B5816085BD80910B
:1028C0006E00816080936E00109281008091810083
:1028D000826080938100809181008160809381007B
:1028E000809180008160809380008091B10084603D
:1028F0008093B1008091B00081608093B00080919E
:102900007A00846080937A0080917A00826080935C
:102910007A0080917A00816080937A0080917A00B9
:10292000806880937A001092C100E091E804F091F1
:10293000E90482E08083E091E404F091E5041082F0
:10294000E091E604F091E7048FEC80831092F004AC
:10295000E091EC04F091ED0486E08083E091EA04DC
:10296000F091EB04808180618083E091EA04F09132
:10297000EB04808188608083E091EA04F091EB04AD
:10298000808180688083E091EA04F091EB0480818B
:102990008F7D808361E08CE00E94490161E08DE0E1
:1029A0000E94490161E08EE00E94490160E08CE0F4
:1029B0000E941B0160E08DE00E941B0160E08EE040
:1029C0000E941B011092A8041092A7041092A60462
:1029D0001092A5040E94A00389E292E09093A404BF
:1029E0008093A3048AE292E09093A2048093A104CE
:1029F0001092BA058091C005823018F098E090934B
:102A0000BA058093BD0562E370E080E090E00E942B
:102A1000F7016091C10585EB95E00E94650468EEC1
:102A200073E080E090E00E94F70160E385EB95E0C1
:102A30000E9477050BE416E4C8010197F1F760E303
:102A400085EB95E00E947705C8010197F1F760E3F7
:102A500085EB95E00E94770583E592E00197F1F719
:102A600060E285EB95E00E9477056091BA056062AF
:102A700040E085EB95E00E94900584E08093BB05E3
:102A800040E06CE085EB95E00E9490050E94D8053F
:102A900082E08093BC0540E066E085EB95E00E9413
:102AA000900540E062E085EB95E00E9490058BE3A5
:102AB0009FE10197F1F788E08093C10560E085EB25
:102AC00095E00E9465046AE473E0CE0101960E94DD
:102AD000C9076AE573E0CE0107960E94C907BE01E7
:102AE0006F5F7F4FCE0107960E942E08CE0107969A
:102AF0000E942608CE0101960E94260887E693E0F0
:102B00000E94160682E993E00E94160661E085E0C5
:102B10000E94490190E080E00E947A0160E084E038
:102B20000E94490190E080E00E948D008091B205F2
:102B30008C3008F051C061E089E00E944901809129
:102B4000B205282F30E0F901EE0FFF1FE20FF31F4F
:102B5000EF57FA4F9081907C996090831092B30563
:102B60001092B4052CE0622F0E94B817829FB0012A
:102B7000112430E020E0AB01420F531FFA01EE0FA9
:102B8000FF1FE40FF51FEF57FA4F908196FD16C017
:102B90002F5F3F4F2C30310571F781110FC010921C
:102BA000800082E080938100109285001092840062
:102BB000B19A80916F00826080936F00E091B205BE
:102BC0008E2F90E0FC01EE0FFF1FE80FF91FEF576B
:102BD000FA4F80818064808361E086E00E94490131
:102BE00061E087E00E94490161E088E00E944901BC
:102BF00061E08AE00E94490161E08BE00E944901A6
:102C00000E944F0534ECE32E34E0F32E0AE010E08E
:102C1000C8010E94C208F70181937F010F5F1F4F17
:102C200004311105A9F71092CE0484E190E00E94CE
:102C3000C20890E09093B8048093B70422EBE22E90
:102C400024E0F22E05E110E0C8010E94C208F7015D
:102C500081937F010F5F1F4F0A311105A9F799EB8F
:102C6000E92E94E0F92E0EE110E0C8010E94C2089E
:102C7000F70181937F010F5F1F4F08321105A9F7FC
:102C80001092C30488E290E00E94C20890E0909302
:102C9000B1048093B0048BEAE82E84E0F82E09E2B8
:102CA00010E0C8010E94C208F70181937F010F5F05
:102CB0001F4F0E321105A9F785E090E00E94C2086F
:102CC000833028F490E09093AA048093A90490E0C4
:102CD00080E00E94C208182F8FEF810F61E08730DB
:102CE000A8F58CE00E941B01113009F03FC06DED8A
:102CF00071E08CEA95E00E94A80763EB72E0CE01D8
:102D000001960E94C90769EB73E0CE0107960E9405
:102D1000C907BE016F5F7F4FCE0107960E942E0844
:102D2000CE0107960E942608CE0101960E94260831
:102D300000E010E00E94C40801151105D9F30E94BB
:102D4000D6028823B9F30E940000F4CF8EE00E94DF
:102D50001B011330C1F467EF71E08CEA95E00E942B
:102D6000A8070E944F056EED72E0C9CF123089F7B7
:102D700069EE71E08CEA95E00E94A8070E944F0579
:102D80006FEC72E0BCCF143059F46AEE72E08CEA5A
:102D900095E00E94A8070E94630564EC73E0AFCF42
:102DA000153059F460E173E08CEA95E00E94A807C1
:102DB0000E944F0561ED73E0A2CF163049F465E53E
:102DC00072E08CEA95E00E94A80764EC74E097CF6B
:102DD000173009F0ADCF6DE572E08CEA95E00E9406
:102DE000A80769EB74E08BCF86EA95E00E9426087D
:102DF0008CEA95E00C94260891110C94051780320A
:102E000019F089508550C8F70895992788270895A3
:102E1000F999FECF92BD81BDF89A992780B50895A2
:102E2000262FF999FECF1FBA92BD81BD20BD0FB6E6
:102E3000F894FA9AF99A0FBE01960895052E97FB19
:102E40001EF400940E94351757FD07D00E94871783
:102E500007FC03D04EF40C943517509540953095EF
:102E600021953F4F4F4F5F4F0895909580957095F6
:102E700061957F4F8F4F9F4F08950E94A917A59F7F
:102E8000900DB49F900DA49F800D911D1124089565
:102E9000B7FF0C943D170E943D17821B930B0895BA
:102EA0002F923F924F925F926F927F928F929F925A
:102EB000AF92BF92CF92DF92EF92FF920F931F9348
:102EC000CF93DF93CDB7DEB7CA1BDB0B0FB6F894F9
:102ED000DEBF0FBECDBF09942A88398848885F8439
:102EE0006E847D848C849B84AA84B984C884DF80AA
:102EF000EE80FD800C811B81AA81B981CE0FD11D8E
:102F00000FB6F894DEBF0FBECDBFED010895A1E26C
:102F10001A2EAA1BBB1BFD010DC0AA1FBB1FEE1F53
:102F2000FF1FA217B307E407F50720F0A21BB30B9E
:102F3000E40BF50B661F771F881F991F1A9469F71A
:102F400060957095809590959B01AC01BD01CF0176
:102F50000895A29FB001B39FC001A39F700D811D72
:102F60001124911DB29F700D811D1124911D089592
:102F7000991B79E004C0991F961708F0961B881FCB
:102F80007A95C9F780950895EE0FFF1F0590F4918B
:102F9000E02D09940F931F93CF93DF938230910517
:102FA00010F482E090E0E091C405F091C50530E0B6
:102FB00020E0B0E0A0E0309799F42115310509F444
:102FC0004AC0281B390B24303105D8F58A819B81F2
:102FD0006115710589F1FB0193838283FE0111C0A4
:102FE000408151810281138148175907E0F0481749
:102FF000590799F4109761F012960C931297139653
:103000001C933296CF01DF91CF911F910F910895BC
:103010000093C4051093C505F4CF2115310551F077
:103020004217530738F0A901DB019A01BD01DF0106
:10303000F801C1CFEF01F9CF9093C5058093C40586
:10304000CDCFFE01E20FF31F8193919322503109FE
:1030500039832883D7CF2091C2053091C305232B14
:1030600041F420910201309103013093C305209374
:10307000C20520910001309101012115310541F473
:103080002DB73EB74091040150910501241B350B2B
:10309000E091C205F091C305E217F307A0F42E1BDF
:1030A0003F0B2817390778F0AC014E5F5F4F2417AC
:1030B000350748F04E0F5F1F5093C3054093C2057C
:1030C000819391939FCFF0E0E0E09CCFCF93DF938B
:1030D0000097E9F0FC01329713821282A091C40597
:1030E000B091C505ED0130E020E01097A1F42081FA
:1030F0003181820F931F2091C2053091C30528179B
:10310000390709F061C0F093C305E093C205DF9170
:10311000CF910895EA01CE17DF07E8F54A815B8178
:103120009E0141155105B1F7E901FB83EA834991FD
:103130005991C40FD51FEC17FD0761F4808191816F
:103140000296840F951FE901998388838281938178
:103150009B838A83F0E0E0E012968D919C91139717
:103160000097B9F52D913C911197CD010296820FF0
:10317000931F2091C2053091C3052817390739F6EE
:10318000309751F51092C5051092C405B093C30550
:10319000A093C205BCCFD383C28340815181840FE9
:1031A000951FC817D90761F44E5F5F4F88819981D9
:1031B000480F591F518340838A819B819383828367
:1031C0002115310509F0B0CFF093C505E093C40592
:1031D0009ECFFD01DC01C0CF13821282D7CFB0E0B9
:1031E000A0E0E5EFF8E10C9452178C01009751F440
:1031F000CB010E94CA178C01C801CDB7DEB7E0E150
:103200000C946E17FC01E60FF71F9C012250310948
:10321000E217F30708F49DC0D901CD91DC91119715
:10322000C617D70798F0C530D10530F3CE01049703
:103230008617970708F3C61BD70B2297C193D19324
:103240006D937C93CF010E946618D6CF5B01AC1AB8
:10325000BD0A4C018C0E9D1EA091C405B091C50500
:10326000512C412CF12CE12C109731F58091C205A5
:103270009091C3058815990509F05CC0461657065C
:1032800008F058C08091000190910101009741F42D
:103290008DB79EB74091040150910501841B950B99
:1032A000E817F90708F055C0F093C305E093C2058D
:1032B000F90171836083A0CF8D919C911197129633
:1032C0006C90129713967C901397A815B90559F531
:1032D0006C0142E0C40ED11CCA14DB0420F1AC0125
:1032E0004A195B09DA011296159780F0628273829F
:1032F00051834083D9016D937C93E114F10471F003
:10330000D7011396FC93EE93129776CF22968C0FEB
:103310009D1FF90191838083F301EFCFF093C505E1
:10332000E093C40569CF4816590608F42C017D01C5
:10333000D3019ACFCB010E94CA177C01009749F0B4
:10334000AE01B8010E94C919C8010E946618870120
:1033500053CF10E000E050CF91110C94051780532B
:103360008A5018F0865C0C94B919089585FD0C9468
:103370000517806291110C94051781568A51D8F770
:1033800008959111089581548A5108F4805E855AF8
:103390000895FB01DC0102C001900D9241505040A4
:1033A000D8F70895FC018191861721F08823D9F779
:1033B000992708953197CF010895FB01DC018D9184
:1033C000019080190110D9F3990B0895FB01DC01DC
:1033D00001900D920020E1F70895FB01DC014150BE
:1033E000504030F08D910190801919F40020B9F708
:1033F000881B990B0895FC0181E090E0019006166E
:1034000009F4CF010020D1F701970895FB015191F4
:103410005523A9F0BF01DC014D9145174111E1F79A
:1034200059F4CD010190002049F04D914015411112
:10343000C9F3FB014111EFCF81E090E001970895BE
:1034400010E0C2E6D0E004C0FE010E94C41721963D
:0A345000C336D107C9F7F894FFCF87
:10345A000000C6058000000040001400540000006F
:10346A0000000C032C0259025903CA026802BC026A
:10347A0000000000360409044C05DF030204EF03D0
:10348A00E00300000000EA052C024C052B020D0A9D
:10349A00002F2F00636F6E665F696E6900636F6E3F
:1034AA00663A66696E0067756172646164610043B9
:1034BA006F6E66696775726163696F6E002D3E2073
:1034CA004F4B3A204172636869766F202E6F72679C
:1034DA00206361726761646F20657869746F7361D4
:1034EA006D656E7465006172636869766F202E6F10
:1034FA007267004572726F7220656E002D3E20451C
:10350A0052524F523A2043617267612061626F7270
:10351A007461646120706F72206572726F72657374
:10352A002064652073696E7461786973006D6F64D5
:10353A006F5F666965737461006D6F646F5F726552
:10354A006C616A61646F006D6F646F5F6E6F636850
:10355A0065006D6F646F5F637573746F6D3A0063B6
:10356A007573746F6D315F656469743A006375735E
:10357A00746F6D325F656469743A00637573746F52
:10358A006D315F6E65773A00637573746F6D325F84
:10359A006E65773A0076656E74696C61646F723A2B
:1035AA00006F666600637573746F6D3100637573BF
:1035BA00746F6D32006C656427733A006C656473CE
:1035CA003A0073616C613A00636F6D65646F723AB9
:1035DA0000636F63696E613A006261C3B16F3A005A
:1035EA0062616E6F3A0068616269746163696F6EE5
:1035FA003A00563A4F4E204C4544533A416C746552
:10360A00726E004D6F646F3A20464945535441002B
:10361A00563A4F4646204C4544533A4F4646004D8B
:10362A006F646F3A2052454C414A41444F004D6FF6
:10363A00646F3A204E4F43484500656E63656E6479
:10364A0065725F746F646F0056656E74696C61644D
:10365A006F723A204F4E004C4544533A204F4E0069
:10366A006170616761725F746F646F0056656E7432
:10367A00696C61646F723A204F4646004C45445368
:10368A003A204F4646004D6F646F20437573746F3E
:10369A006D3A00696E6963696F004573706572619E
:1036AA006E646F206D616E646F004D6F646F3A20B7
:1036BA00494E4943494F002D2D2D20536973746596
:1036CA006D6120696E69636961646F20284861725F
:1036DA0064776172652053657269616C29202D2DAA
:1036EA002D004573637269626120756E20636F6D88
:1036FA00616E646F206F2063617267756520756EF5
:10370A00202E6F72672E2E2E005245535441555269
:10371A0041444F004D6F646F3A20414C4C204F4E4C
:10372A00004D6F646F3A20414C4C204F46460000D2
:00000001FF
